:100000000C942A000C9434000C9434000C943400AA
:100010000C9434000C9434000C9434000C94340090
:100020000C9434000C9434000C9434000C94340080
:100030000C9434000C9434000C9434000C94340070
:100040000C9434000C9434000C9434000C94340060
:100050000C94340011241FBECFE5D8E0DEBFCDBF25
:100060000E9436000C9463000C9400008FEF8ABB52
:1000700087BB84BB40E05FEF2FE730E060E058BB18
:10008000C901042E02C0959587950A94E2F785BBB5
:100090005BBB7FE3EDE0F3E07150E040F040E1F75F
:1000A00000C0000055BB88BB5BBB7FE38DE093E0E5
:1000B000715080409040E1F700C000004F5F483031
:0A00C000F4F2462FDCCFF894FFCFD6
:00000001FF
