S00E0000746573745F312E73726563C6
S11300000C942A000C9434000C9434000C943400A6
S11300100C9434000C9434000C9434000C9434008C
S11300200C9434000C9434000C9434000C9434007C
S11300300C9434000C9434000C9434000C9434006C
S11300400C9434000C9434000C9434000C9434005C
S11300500C94340011241FBECFE5D8E0DEBFCDBF21
S11300600E9436000C944A000C9400008FEF8ABB67
S113007087BB84BB2FEF9FE780E828BB95BB8BBB76
S11300803FE34DE053E0315040405040E1F700C0C1
S10B00900000F3CFF894FFCF48
S9030000FC
