S0100000426F756E646172792E73726563D0
S11300000C942A000C9447000C9447000C9447006D
S11300100C9447000C9447000C9447000C94470040
S11300200C9447000C9447000C9447000C94470030
S11300300C9447000C9447000C9447000C94470020
S11300400C9447000C9447000C9447000C94470010
S11300500C94470011241FBECFE5D8E0DEBFCDBF0E
S113006010E0A0E6B0E0E6E4F4E102C005900D92F1
S1130070A039B107D9F720E0A0E9B0E001C01D9292
S1130080A33AB207E1F70E94020A0C94210A0C94E5
S11300900000E6E9F0E086EA90E02FEFDF01139735
S11300A02C9311962C9311962C9320833496E81755
S11300B0F907A1F781E08093920082E08093900099
S11300C0809391000895CF93DF93E0E8F0E0C0E7D8
S11300D0D0E0A0E6B0E080E990E0219122BB18BA1C
S11300E029912BBB26EA2A95F1F700C01BBA2D9162
S11300F028BB26EA2A95F1F700C0E817F90769F743
S1130100DF91CF910895CF93DF93CDB7DEB72C97CE
S11301100FB6F894DEBF0FBECDBF813031F561302C
S113012009F086C0809181008983809182008A834E
S1130130809183008B83809184008C831D8280E373
S11301408E838F831886FE013196DE011596CD01CC
S1130150219122BB18BA2D912BBB23E52A95F1F7E7
S11301600000E817F907A1F777C18230C9F56130BB
S113017009F086C0809181008983809182008A83FE
S1130180809183008B83809184008C83198681E025
S11301908A878B871C861D8280E88E838F831886CE
S11301A0FE013196CE010996BE016B5F7F4F9B0124
S11301B0419142BB18BADC014D91CD014BBBB3E573
S11301C0BA95F1F700001BBADB014D91BD0148BBA4
S11301D0B3E5BA95F1F70000E217F30749F73CC11C
S11301E0833031F5613009F086C0809181008983C4
S11301F0809182008A83809183008B838091840024
S11302008C831D828CE08E838F831886FE01319649
S1130210DE011596CD01219122BB1BBA2D9128BB7D
S113022023E52A95F1F70000E817F907A1F714C1AF
S1130230813031F5623009F086C08091860089836F
S1130240809187008A83809188008B8380918900C4
S11302508C831D8280E38E838F831886FE01319602
S1130260DE011596CD01219122BB18BA2D912BBB2D
S113027043E54A95F1F70000E817F907A1F7ECC048
S11302808230C9F5623009F086C080918600898386
S1130290809187008A83809188008B838091890074
S11302A08C83198681E08A878B871C861D8280E86F
S11302B08E838F831886FE013196CE010996BE0186
S11302C06B5F7F4F9B01419142BB18BADC014D919A
S11302D0CD014BBBB3E5BA95F1F700001BBADB01C6
S11302E04D91BD0148BBB3E5BA95F1F70000E217A3
S11302F0F30749F7B1C0833031F5623009F086C0A5
S1130300809186008983809187008A838091880008
S11303108B83809189008C831D828CE08E838F83F4
S11303201886FE013196DE011596CD01219122BB7E
S11303301BBA2D9128BB23E52A95F1F70000E81795
S1130340F907A1F789C0813031F5633009F084C021
S113035080918B00898380918C008A8380918D00A9
S11303608B8380918E008C831D8280E38E838F83A8
S11303701886FE013196DE011596CD01219122BB2E
S113038018BA2D912BBB43E54A95F1F70000E81705
S1130390F907A1F761C08230C9F5633009F05CC088
S11303A080918B00898380918C008A8380918D0059
S11303B08B8380918E008C83198681E08A878B875A
S11303C01C861D8280E88E838F831886FE013196F9
S11303D0CE010996BE016B5F7F4F9B01419142BBE9
S11303E018BADC014D91CD014BBBB3E5BA95F1F7D9
S11303F000001BBADB014D91BD0148BBB3E5BA95C2
S1130400F1F70000E217F30749F726C0833021F51E
S1130410633011F580918B00898380918C008A83ED
S113042080918D008B8380918E008C831D828CE063
S11304308E838F831886FE013196DE011596CD01D9
S1130440219122BB1BBA2D9128BB23E52A95F1F7F4
S11304500000E817F907A1F72C960FB6F894DEBF51
S11304600FBECDBFDF91CF910895CF93DF93CDB76A
S1130470DEB72C970FB6F894DEBF0FBECDBF813028
S113048009F079C0613031F58091810089838091D0
S113049082008A83809183008B83809184008C8383
S11304A088E08D8380E18E8380E28F8380E4888777
S11304B0FE013196DE011596CD01219122BB18BAB9
S11304C02D912BBB23E52A95F1F70000E817F907D6
S11304D0A1F77DC1623031F58091860089838091D6
S11304E087008A83809188008B83809189008C8324
S11304F088E08D8380E18E8380E28F8380E4888727
S1130500FE013196DE011596CD01219122BB18BA68
S11305102D912BBB43E54A95F1F70000E817F90745
S1130520A1F755C1633009F052C180918B008983D2
S113053080918C008A8380918D008B8380918E00C2
S11305408C8388E08D8380E18E8380E28F8380E4D6
S11305508887FE013196DE011596CD01219122BBDB
S113056018BA2D912BBB23E52A95F1F70000E81763
S1130570F907A1F72CC1823009F0AFC06130C1F591
S1130580809181008983809182008A838091830095
S11305908B83809184008C8319861A8681E08B87F3
S11305A082E08C8780E48D8380E88E831F821886A6
S11305B0FE013196CE010996BE016B5F7F4F9B0110
S11305C0419142BB18BADC014D91CD014BBBB3E55F
S11305D0BA95F1F700001BBADB014D91BD0148BB90
S11305E0B3E5BA95F1F70000E217F30749F7EFC056
S11305F06230C1F5809186008983809187008A8367
S1130600809188008B83809189008C8319861A8657
S113061081E08B8782E08C8780E48D8380E88E8301
S11306201F821886FE013196CE010996BE016B5FCA
S11306307F4F9B01419142BB18BADC014D91CD0122
S11306404BBBB3E5BA95F1F700001BBADB014D9142
S1130650BD0148BBB3E5BA95F1F70000E217F30713
S113066049F7B5C0633009F0B2C080918B0089832B
S113067080918C008A8380918D008B8380918E0081
S11306808C8319861A8681E08B8782E08C8780E4CC
S11306908D8380E88E831F821886FE013196CE01F9
S11306A00996BE016B5F7F4F9B01419142BB18BA13
S11306B0DC014D91CD014BBBB3E5BA95F1F70000D8
S11306C01BBADB014D91BD0148BBB3E5BA95F1F707
S11306D00000E217F30749F77AC0833009F077C0C6
S11306E0613031F5809181008983809182008A8311
S11306F0809183008B83809184008C8382E08D833E
S113070084E08E8388E08F8380E18887FE013196C0
S1130710DE011596CD01219122BB1BBA2D9128BB78
S113072023E52A95F1F70000E817F907A1F74FC070
S1130730623031F5809186008983809187008A83B5
S1130740809188008B83809189008C8382E08D83E3
S113075084E08E8388E08F8380E18887FE01319670
S1130760DE011596CD01219122BB1BBA2D9128BB28
S113077043E54A95F1F70000E817F907A1F727C008
S1130780633029F580918B00898380918C008A8362
S113079080918D008B8380918E008C8382E08D8389
S11307A084E08E8388E08F8380E18887FE01319620
S11307B0DE011596CD01219122BB1BBA2D9128BBD8
S11307C023E52A95F1F70000E817F907A1F72C961D
S11307D00FB6F894DEBF0FBECDBFDF91CF91089561
S11307E0DF92EF92FF920F931F93CF93DF9381E0F9
S11307F08093990080939E0082E08093A10080936F
S1130800A00008E910E0EE24E394DD24D39417C09B
S113081099919F3F59F0913029F46F2D8E2D0E94AC
S1130820830004C06F2D8E2D0E943502F39484E062
S1130830F812EECFE3940C5F1F4FE81619F0E801AD
S1130840FD2CE6CFDF91CF911F910F91FF90EF9098
S1130850DF900895DF92EF92FF920F931F93CF934F
S1130860DF93CDB7DEB72C970FB6F894DEBF0FBE7B
S1130870CDBF80919200813009F0ADC2809190008B
S1130880813009F078C590919100913009F06EC5DE
S1130890809181008983809182008A838091830082
S11308A08B83809184008C831D8280E38E838F836D
S11308B01886D12C8E010B5F1F4F7801D0FC10C01D
S11308C0FE013196D801819182BB18BA8D918BBB00
S11308D022E42A95F1F700C0EE15FF05A1F717C031
S11308E0FE013196819182BB18BA1BBA82E48A95C3
S11308F0F1F700C0E017F107A9F70E9463000E9416
S1130900F003A9EFB0E01197F1F700C00000D39411
S1130910BAE0DB12D3CF5FC28091860089838091D5
S113092087008A83809188008B83809189008C83DF
S11309301D8280E38E838F831886D12C8E010B5FFA
S11309401F4F7801D0FC10C0FE013196D80181916F
S113095082BB18BA8D918BBB22E42A95F1F700C0B3
S1130960EE15FF05A1F717C0FE013196819182BBF8
S113097018BA1BBA82E48A95F1F700C0E017F107B0
S1130980A9F70E9463000E94F003A9EFB0E0119759
S1130990F1F700C00000D394BAE0DB12D3CF1BC23E
S11309A080918B00898380918C008A8380918D0053
S11309B08B8380918E008C831D8280E38E838F8352
S11309C01886D12C8E010B5F1F4F7801D0FC10C00C
S11309D0FE013196D801819182BB18BA8D918BBBEF
S11309E022E42A95F1F700C0EE15FF05A1F717C020
S11309F0FE013196819182BB18BA1BBA82E48A95B2
S1130A00F1F700C0E017F107A9F70E9463000E9404
S1130A10F003A9EFB0E01197F1F700C00000D39400
S1130A20BAE0DB12D3CFD7C180919100813009F0B5
S1130A30ADC4809181008983809182008A838091F2
S1130A4083008B83809184008C83198681E08A875C
S1130A508B871C861D8280E88E838F831886D12C19
S1130A608E010B5F1F4F7801D0FC1DC0FE01319633
S1130A70CE010996A801219122BB18BADC012D915F
S1130A80CD012BBBB3E5BA95F1F700001BBADA012F
S1130A902D91AD0128BBB3E5BA95F1F70000EE1531
S1130AA0FF0549F717C0FE013196819182BB18BA40
S1130AB01BBA22E42A95F1F700C0E017F107A9F761
S1130AC00E9463000E94F00389EF90E00197F1F720
S1130AD000C00000D3949AE0D912C6CF7CC18091A3
S1130AE086008983809187008A83809188008B8324
S1130AF0809189008C83198681E08A878B871C8684
S1130B001D8280E88E838F831886D12C8E010B5F23
S1130B101F4F7801D0FC1DC0FE013196CE0109960D
S1130B20A801219122BB18BADC012D91CD012BBB68
S1130B30B3E5BA95F1F700001BBADA012D91AD01C6
S1130B4028BBB3E5BA95F1F70000EE15FF0549F7A8
S1130B5017C0FE013196819182BB18BA1BBA22E4F8
S1130B602A95F1F700C0E017F107A9F70E94630086
S1130B700E94F00389EF90E00197F1F700C00000B4
S1130B80D3949AE0D912C6CF26C180918B00898371
S1130B9080918C008A8380918D008B8380918E005C
S1130BA08C83198681E08A878B871C861D8280E866
S1130BB08E838F831886D12C8E010B5F1F4F780193
S1130BC0D0FC1DC0FE013196CE010996A8012191E9
S1130BD022BB18BADC012D91CD012BBBB3E5BA952C
S1130BE0F1F700001BBADA012D91AD0128BBB3E582
S1130BF0BA95F1F70000EE15FF0549F717C0FE019D
S1130C003196819182BB18BA1BBA22E42A95F1F776
S1130C1000C0E017F107A9F70E9463000E94F003E7
S1130C2089EF90E00197F1F700C00000D3949AE0B7
S1130C30D912C6CFD0C080919100813009F0AEC3E3
S1130C40809181008983809182008A8380918300CE
S1130C508B83809184008C831D828CE08E838F83B0
S1130C601886D12C8E010B5F1F4F7801D0FC10C069
S1130C70FE013196D801819182BB1BBA8D9188BB4C
S1130C8023E52A95F1F70000EE15FF05A1F717C03B
S1130C90FE013196819182BB18BA1BBA82E48A950F
S1130CA0F1F700C0E017F107A9F70E9463000E9462
S1130CB0F003A9EFB0E01197F1F700C00000D3945E
S1130CC0BAE0DB12D3CF87C08091860089838091FC
S1130CD087008A83809188008B83809189008C832C
S1130CE01D828CE08E838F831886D12C8E010B5F3E
S1130CF01F4F7801D0FC10C0FE013196D8018191BC
S1130D0082BB1BBA8D9188BB23E52A95F1F70000BD
S1130D10EE15FF05A1F717C0FE013196819182BB44
S1130D2018BA1BBA82E48A95F1F700C0E017F107FC
S1130D30A9F70E9463000E94F003A9EFB0E01197A5
S1130D40F1F700C00000D394BAE0DB12D3CF43C064
S1130D5080918B00898380918C008A8380918D009F
S1130D608B8380918E008C831D828CE08E838F8395
S1130D701886D12C8E010B5F1F4F7801D0FC10C058
S1130D80FE013196D801819182BB1BBA8D9188BB3B
S1130D9023E52A95F1F70000EE15FF05A1F717C02A
S1130DA0FE013196819182BB18BA1BBA82E48A95FE
S1130DB0F1F700C0E017F107A9F70E9463000E9451
S1130DC0F003A9EFB0E01197F1F700C00000D3944D
S1130DD0BAE0DB12D3CF80919200823009F004C3D1
S1130DE080919000813009F0E1C29091910091309E
S1130DF009F0DFC2809181008983809182008A8317
S1130E00809183008B83809184008C8388E08D8320
S1130E1080E18E8380E28F8380E48887D12C8E01E9
S1130E200B5F1F4F7801D0FC10C0FE013196D80132
S1130E30819182BB18BA8D918BBB22E42A95F1F77C
S1130E4000C0EE15FF05A1F717C0FE013196819190
S1130E5082BB18BA1BBA82E48A95F1F700C0E01786
S1130E60F107A9F70E9463000E94F003A9EFB0E024
S1130E701197F1F700C00000D394BAE0DB12D3CF8E
S1130E80B3C2809186008983809187008A83809190
S1130E9088008B83809189008C8388E08D8380E136
S1130EA08E8380E28F8380E48887D12C8E010B5F50
S1130EB01F4F7801D0FC10C0FE013196D8018191FA
S1130EC082BB18BA8D918BBB22E42A95F1F700C03E
S1130ED0EE15FF05A1F717C0FE013196819182BB83
S1130EE018BA1BBA82E48A95F1F700C0E017F1073B
S1130EF0A9F70E9463000E94F003A9EFB0E01197E4
S1130F00F1F700C00000D394BAE0DB12D3CF6CC277
S1130F1080918B00898380918C008A8380918D00DD
S1130F208B8380918E008C8388E08D8380E18E8317
S1130F3080E28F8380E48887D12C8E010B5F1F4F62
S1130F407801D0FC10C0FE013196D801819182BB9A
S1130F5018BA8D918BBB22E42A95F1F700C0EE15E7
S1130F60FF05A1F717C0FE013196819182BB18BA23
S1130F701BBA82E48A95F1F700C0E017F107A9F7DC
S1130F800E9463000E94F003A9EFB0E01197F1F70B
S1130F9000C00000D394BAE0DB12D3CF25C2809105
S1130FA09100813009F010C2809181008983809181
S1130FB082008A83809183008B83809184008C8358
S1130FC019861A8681E08B8782E08C8780E48D8382
S1130FD080E88E831F821886D12C8E010B5F1F4FF1
S1130FE07801D0FC1DC0FE013196CE010996A801FE
S1130FF0219122BB18BADC012D91CD012BBBB3E5A5
S1131000BA95F1F700001BBADA012D91AD0128BBA6
S1131010B3E5BA95F1F70000EE15FF0549F717C0DF
S1131020FE013196819182BB18BA1BBA22E42A953B
S1131030F1F700C0E017F107A9F70E9463000E94CE
S1131040F00389EF90E00197F1F700C00000D3941A
S11310509AE0D912C6CFC8C1809186008983809155
S113106087008A83809188008B83809189008C8398
S113107019861A8681E08B8782E08C8780E48D83D1
S113108080E88E831F821886D12C8E010B5F1F4F40
S11310907801D0FC1DC0FE013196CE010996A8014D
S11310A0219122BB18BADC012D91CD012BBBB3E5F4
S11310B0BA95F1F700001BBADA012D91AD0128BBF6
S11310C0B3E5BA95F1F70000EE15FF0549F717C02F
S11310D0FE013196819182BB18BA1BBA22E42A958B
S11310E0F1F700C0E017F107A9F70E9463000E941E
S11310F0F00389EF90E00197F1F700C00000D3946A
S11311009AE0D912C6CF70C180918B0089838091F7
S11311108C008A8380918D008B8380918E008C83D8
S113112019861A8681E08B8782E08C8780E48D8320
S113113080E88E831F821886D12C8E010B5F1F4F8F
S11311407801D0FC1DC0FE013196CE010996A8019C
S1131150219122BB18BADC012D91CD012BBBB3E543
S1131160BA95F1F700001BBADA012D91AD0128BB45
S1131170B3E5BA95F1F70000EE15FF0549F717C07E
S1131180FE013196819182BB18BA1BBA22E42A95DA
S1131190F1F700C0E017F107A9F70E9463000E946D
S11311A0F00389EF90E00197F1F700C00000D394B9
S11311B09AE0D912C6CF18C180919100813009F00C
S11311C00BC1809181008983809182008A83809100
S11311D083008B83809184008C8382E08D8384E000
S11311E08E8388E08F8380E18887D12C8E010B5F0A
S11311F01F4F7801D0FC10C0FE013196D8018191B7
S113120082BB1BBA8D9188BB23E52A95F1F70000B8
S1131210EE15FF05A1F717C0FE013196819182BB3F
S113122018BA1BBA82E48A95F1F700C0E017F107F7
S1131230A9F70E9463000E94F003A9EFB0E01197A0
S1131240F1F700C00000D394BAE0DB12D3CFCCC0D6
S1131250809186008983809187008A8380918800A9
S11312608B83809189008C8382E08D8384E08E83DC
S113127088E08F8380E18887D12C8E010B5F1F4F1C
S11312807801D0FC10C0FE013196D801819182BB57
S11312901BBA8D9188BB23E52A95F1F70000EE1562
S11312A0FF05A1F717C0FE013196819182BB18BAE0
S11312B01BBA82E48A95F1F700C0E017F107A9F799
S11312C00E9463000E94F003A9EFB0E01197F1F7C8
S11312D000C00000D394BAE0DB12D3CF85C0809164
S11312E08B00898380918C008A8380918D008B830D
S11312F080918E008C8382E08D8384E08E8388E0ED
S11313008F8380E18887D12C8E010B5F1F4F78017A
S1131310D0FC10C0FE013196D801819182BB1BBA6A
S11313208D9188BB23E52A95F1F70000EE15FF05A2
S1131330A1F717C0FE013196819182BB18BA1BBA7E
S113134082E48A95F1F700C0E017F107A9F70E943B
S113135063000E94F003A9EFB0E01197F1F700C019
S11313600000D394BAE0DB12D3CF3EC09091910039
S1131370923021F4D1CA823031F456CB909191004D
S1131380933009F40DCB833079F555CC80919100DD
S1131390823009F4A4CB833039F5F7CB80919100E6
S11313A0823009F491CC8330F9F4D2CC823049F400
S11313B0F6CD90919100923009F463CD933009F405
S11313C0A7CD833089F4F8CE80919100823009F45E
S11313D043CE833049F498CE80919100823009F451
S11313E037CF833009F47BCF2C960FB6F894DEBF49
S11313F00FBECDBFDF91CF911F910F91FF90EF9062
S1131400DF90089580E884BF84BF8FEF8ABB87BBD9
S113141014BA81BB0E94490082E0809392008093B9
S1131420900080939100C1E0A89B04C0C0939000F9
S1131430C09391000E9463000E94F0030E942A045A
S1091440F3CFF894FFCF86
S1131446FF21212121FF21212121FF21212121FF0A
S1131456FF84848484FF84848484FF84848484FF56
S11314667E6E5E4E3E2E1E0E7D6D5D4D3D2D1D0D1A
S9030000FC
