:100000000C942A000C943F000C943F000C943F0089
:100010000C943F000C943F000C943F000C943F0064
:100020000C943F000C943F000C943F000C943F0054
:100030000C943F000C943F000C943F000C943F0044
:100040000C943F000C943F000C943F000C943F0034
:100050000C943F0011241FBECFE5D8E0DEBFCDBF1A
:1000600010E0A0E6B0E0E2EDF4E002C005900D92F1
:10007000A039B107D9F70E943E020C9467020C9494
:100080000000CF93DF93E0E8F0E0C0E7D0E0A0E627
:10009000B0E080E990E0219122BB18BA29912BBBF6
:1000A00026EA2A95F1F700C01BBA2D9128BB26EA53
:1000B0002A95F1F700C0E817F90769F7DF91CF91AA
:1000C0000895CF93DF93CDB7DEB72C970FB6F89492
:1000D000DEBF0FBECDBF813009F083C0613019F59E
:1000E000809181008983809182008A83809183003E
:1000F0008B83809184008C831D8280E38E838F8329
:100100001886FE013196DE011596CD01219122BBA4
:1001100018BA2D912BBB23E52A95F1F70000E817BB
:10012000F907A1F768C16230B1F580918100898338
:10013000809182008A83809183008B8380918400E8
:100140008C83198681E08A878B871C861D8280E8D4
:100150008E838F831886FE013196CE010996BE01EB
:100160006B5F7F4F9B01419142BB18BADC014D91FF
:10017000CD014BBBB3E5BA95F1F700001BBADB012B
:100180004D91BD0148BBB3E5BA95F1F70000E21708
:10019000F30749F730C1633009F02DC18091810028
:1001A0008983809182008A83809183008B838091F0
:1001B00084008C831D828CE08E838F831886FE01E1
:1001C0003196DE011596CD01219122BB1BBA2D91EE
:1001D00028BB23E52A95F1F70000E817F907A1F7F6
:1001E0000AC1823009F083C0613019F58091860020
:1001F0008983809187008A83809188008B83809196
:1002000089008C831D8280E38E838F831886FE0194
:100210003196DE011596CD01219122BB18BA2D91A0
:100220002BBB43E54A95F1F70000E817F907A1F762
:10023000E2C06230B1F580918600898380918700A9
:100240008A83809188008B83809189008C831986B2
:1002500081E08A878B871C861D8280E88E838F834E
:100260001886FE013196CE010996BE016B5F7F4F65
:100270009B01419142BB18BADC014D91CD014BBBB2
:10028000B3E5BA95F1F700001BBADB014D91BD0152
:1002900048BBB3E5BA95F1F70000E217F30749F759
:1002A000AAC0633009F0A7C080918600898380913D
:1002B00087008A83809188008B83809189008C835A
:1002C0001D828CE08E838F831886FE013196DE01BD
:1002D0001596CD01219122BB1BBA2D9128BB23E598
:1002E0002A95F1F70000E817F907A1F784C08330D9
:1002F00009F081C0613019F580918B00898380916C
:100300008C008A8380918D008B8380918E008C83FA
:100310001D8280E38E838F831886FE013196DE0175
:100320001596CD01219122BB18BA2D912BBB43E527
:100330004A95F1F70000E817F907A1F75CC06230B1
:10034000B1F580918B00898380918C008A838091A4
:100350008D008B8380918E008C83198681E08A8743
:100360008B871C861D8280E88E838F831886FE0112
:100370003196CE010996BE016B5F7F4F9B01419183
:1003800042BB18BADC014D91CD014BBBB3E5BA9528
:10039000F1F700001BBADB014D91BD0148BBB3E58D
:1003A000BA95F1F70000E217F30749F724C063306C
:1003B00011F580918B00898380918C008A838091D4
:1003C0008D008B8380918E008C831D828CE08E83C8
:1003D0008F831886FE013196DE011596CD0121919D
:1003E00022BB1BBA2D9128BB23E52A95F1F700000B
:1003F000E817F907A1F72C960FB6F894DEBF0FBEE9
:10040000CDBFDF91CF910895CF93DF93CDB7DEB706
:1004100028970FB6F894DEBF0FBECDBF813029F507
:10042000613019F5809181008983809182008A83EF
:10043000809183008B83809184008C8380E38D8303
:1004400098E49E839F838887FE013196DE0115968E
:10045000CD01219122BB18BA2D912BBB23E52A9502
:10046000F1F70000E817F907A1F728960FB6F894FE
:10047000DEBF0FBECDBFDF91CF91089580E884BF6E
:1004800084BF8FEF8ABB87BB14BA81BBEE24E39491
:100490000E2D6894FF24F1F80E944100CE2D14C067
:1004A000DF5F1F5F612FC13039F4113029F4602FF5
:1004B000802F0E940402F4CF8C2F0E946100D43060
:1004C0007CF3CF5FC43041F3102FDF2DEBCFF894D6
:0204D000FFCF5C
:1004D200FF21212121FF21212121FF21212121FF92
:1004E200FF84848484FF84848484FF84848484FFDE
:1004F2007E6E5E4E3E2E1E0E7D6D5D4D3D2D1D0DA2
:00000001FF
