S00C0000666C61672E737265637E
S11300000C942A000C943F000C943F000C943F0085
S11300100C943F000C943F000C943F000C943F0060
S11300200C943F000C943F000C943F000C943F0050
S11300300C943F000C943F000C943F000C943F0040
S11300400C943F000C943F000C943F000C943F0030
S11300500C943F0011241FBECFE5D8E0DEBFCDBF16
S113006010E0A0E6B0E0E0EFF0E002C005900D92F1
S1130070A037B107D9F70E9441000C9476000C9484
S113008000008FEF8ABB87BB84BB81BB60E041E08B
S113009050E07FEFA0E0862F992787FD90959A0185
S11300A0062E02C0220F331F0A94E2F7209522BBCA
S11300B078BBFC01E859FF4F30813BBBE9EFF0E02E
S11300C03197F1F700C0000028BB72BBFC01E05A75
S11300D0FF4F80818BBB89EF90E00197F1F700C05F
S11300E000006F5F6830BCF26A2FD5CFF894FFCF61
S11300F03C3C242424243C3C00001818181800001C
S9030000FC
