:100000000C942A000C943F000C943F000C943F0089
:100010000C943F000C943F000C943F000C943F0064
:100020000C943F000C943F000C943F000C943F0054
:100030000C943F000C943F000C943F000C943F0044
:100040000C943F000C943F000C943F000C943F0034
:100050000C943F0011241FBECFE5D8E0DEBFCDBF1A
:1000600010E0A0E6B0E0E4E0F1E002C005900D92FF
:10007000A037B107D9F70E9441000C9480000C947E
:1000800000008FEF8ABB87BB84BB81BB60E07FEF42
:10009000A0E041E050E027C0862F992787FD90958A
:1000A0009A01062E02C0220F331F0A94E2F7209510
:1000B00028BB72BBFC01E05AFF4F30813BBBE9EF2C
:1000C000F0E03197F1F700C0000022BB78BBFC01E3
:1000D000E859FF4F80818BBB89EF90E00197F1F7E2
:1000E00000C000006F5F6830BCF2E7E8F3E13197D1
:1000F000F1F700C0000078BB12BA1BBA6A2FF3CF29
:04010000F894FFCFA1
:100104003C3C242424243C3C00001818181800000B
:00000001FF
