S0100000526F7720546573742E737265631C
S11300000C942A000C9434000C9434000C943400A6
S11300100C9434000C9434000C9434000C9434008C
S11300200C9434000C9434000C9434000C9434007C
S11300300C9434000C9434000C9434000C9434006C
S11300400C9434000C9434000C9434000C9434005C
S11300500C94340011241FBECFE5D8E0DEBFCDBF21
S11300600E9449000C945F000C94000018BA8FEFB2
S11300708BBB87E893E10197F1F700C000001BBA3E
S11300808FEF88BB87E893E10197F1F700C0000088
S1130090089580E884BF84BF8FEF8ABB87BB81BB90
S11300A0DDE7CDE6D2BB0E94360087EA91E60197F0
S11300B0F1F700C00000C2BB0E943600F3CFF894F1
S10500C0FFCF6C
S9030000FC
