:100000000C942A000C943F000C943F000C943F0089
:100010000C943F000C943F000C943F000C943F0064
:100020000C943F000C943F000C943F000C943F0054
:100030000C943F000C943F000C943F000C943F0044
:100040000C943F000C943F000C943F000C943F0034
:100050000C943F0011241FBECFE5D8E0DEBFCDBF1A
:1000600010E0A0E6B0E0E8E7F1E002C005900D92F4
:10007000A83AB107D9F70E9441000C94BA000C9439
:100080000000CF93DF93CDB7DEB7CC54D1090FB6C4
:10009000F894DEBF0FBECDBF8FEF81BB8ABB87BB9D
:1000A0008EE089838DE08A838BE08B8387E08C836D
:1000B00088E0E0E6F0E0DE01159601900D928A9569
:1000C000E1F780E2E8E6F0E0DE011D9601900D9296
:1000D0008A95E1F780E2E8E8F0E0DE019D96019084
:1000E0000D928A95E1F770E09E01235F3F4F01E09A
:1000F00011E0F12CE12CA72FBB27A7FDB095E1E083
:10010000F0E0EC0FFD1FEA0FFB1F6081AA0FBB1F81
:10011000AA0FBB1FAA0FBB1FFE013596C9018A0F8C
:100120009B1F0F2EFDE2CF2ED12CF02DCC0EDD1E0D
:10013000CA0EDB1E5191611105C0412F511103C040
:100140004F2D01C0402F42BBDC014D91CD014BBB77
:10015000D6014D916D0148BBA9EFB0E01197F1F7C1
:1001600000C00000E217F30729F77F5F74301CF22C
:080170007E2DC1CFF894FFCFF2
:100178000010203040506070FF00000000FF0000B9
:100188000000FF00000000FF008484848400848451
:100198008484008484848400FF00000000FF000041
:1001A8000000FF00000000FF002121212100212183
:0801B800212100212121210079
:00000001FF
