:100000000C942A000C9434000C9434000C943400AA
:100010000C9434000C9434000C9434000C94340090
:100020000C9434000C9434000C9434000C94340080
:100030000C9434000C9434000C9434000C94340070
:100040000C9434000C9434000C9434000C94340060
:100050000C94340011241FBECFE5D8E0DEBFCDBF25
:100060000E9436000C9456000C9400008FEF8ABB5F
:1000700087BB84BB81BB40E021E030E05FEF60E004
:10008000C901042E02C0880F991F0A94E2F78095D7
:1000900082BB58BB5BBB89EF90E00197F1F700C0D2
:1000A00000004F5F483064F3462FEACFF894FFCF4B
:00000001FF
